:020000040800F2
:1000000000500020CD0200086902000871020008BB
:10001000790200088102000889020008000000003F
:100020000000000000000000000000009102000835
:100030009D02000800000000A9020008B5020008A7
:100040001503000815030008150300081503000830
:100050001503000815030008150300081503000820
:100060001503000815030008150300081503000810
:100070001503000815030008150300081503000800
:1000800015030008150300081503000815030008F0
:1000900015030008150300081503000815030008E0
:1000A00015030008150300081503000815030008D0
:1000B00015030008150300081503000815030008C0
:1000C00015030008150300081503000815030008B0
:1000D00015030008150300081503000815030008A0
:1000E00015030008150300081503000800000000B0
:1000F0000000000000000000000000000000000000
:0C01000000000000000000005FF808F1A3
:10010C0010B5054C237833B9044B13B10448AFF345
:10011C0000800123237010BD0C00002000000000A3
:10012C006C09000808B5034B1BB103490348AFF336
:10013C00008008BD00000000100000206C090008C1
:10014C0080B500AF00F0E2F800F03CF8012202218B
:10015C001B4800F0C9FB00220421194800F0C4FB25
:10016C0040F6B83000F034F900220221144800F0B7
:10017C00BBFB00220421124800F0B6FB4FF47A704E
:10018C0000F026F9002202210D4800F0ADFB0122FF
:10019C0004210B4800F0A8FB40F6B83000F018F929
:1001AC0000220221064800F09FFB00220421044893
:1001BC0000F09AFB4FF47A7000F00AF900BFC5E723
:1001CC000008014080B586B000AF114B9B69104A06
:1001DC0043F0040393610E4B9B6903F004037B60B3
:1001EC007B6807F1080300221A605A609A60DA6093
:1001FC000623BB600123FB6002237B6107F108032C
:10020C001946044800F0ECF900BF1837BD4680BD14
:10021C00001002400008014080B483B000AF0E4BC8
:10022C009B690D4A43F0010393610B4B9B6903F0EF
:10023C0001037B607B68084BDB69074A43F0805302
:10024C00D361054BDB6903F080533B603B6800BF17
:10025C000C37BD4680BC70470010024080B400AF24
:10026C0000BFFDE780B400AF00BFFDE780B400AF76
:10027C0000BFFDE780B400AF00BFFDE780B400AF66
:10028C0000BFFDE780B400AF00BFBD4680BC704727
:10029C0080B400AF00BFBD4680BC704780B400AFD7
:1002AC0000BFBD4680BC704780B500AF00F074F84D
:1002BC0000BF80BD80B400AF00BFBD4680BC70479E
:1002CC00FFF7F8FF0B480C490C4A002302E0D45806
:1002DC00C4500433C4188C42F9D3094A094C002386
:1002EC0001E013600432A242FBD300F015FBFFF7D0
:1002FC0027FF7047000000200C0000208C0900082C
:10030C000C0000202C000020FEE7000080B500AFA0
:10031C00084B1B68074A43F010031360032000F0DE
:10032C002BF90F2000F008F8FFF776FF0023184692
:10033C0080BD00BF0020024080B582B000AF786065
:10034C00124B1A68124B1B7819464FF47A73B3FB95
:10035C00F1F3B2FBF3F3184600F035F90346002B2A
:10036C0001D001230EE07B680F2B0AD8002279689C
:10037C004FF0FF3000F00BF9064A7B681360002346
:10038C0000E0012318460837BD4680BD0000002060
:10039C00080000200400002080B400AF054B1B783F
:1003AC001A46054B1B681344034A136000BFBD4635
:1003BC0080BC7047080000202800002080B400AFEB
:1003CC00024B1B681846BD4680BC704728000020B5
:1003DC0080B584B000AF7860FFF7F0FFB8607B6841
:1003EC00FB60FB68B3F1FF3F05D00A4B1B781A4644
:1003FC00FB681344FB6000BFFFF7E0FF0246BB68DD
:10040C00D31AFA689A42F7D800BF00BF1037BD461E
:10041C0080BD00BF0800002080B485B000AF7860BC
:10042C007B6803F00703FB600C4BDB68BB60BA68AE
:10043C004FF6FF031340BB60FB681A02BB68134303
:10044C0043F0BF6343F40033BB60044ABB68D36022
:10045C0000BF1437BD4680BC704700BF00ED00E004
:10046C0080B400AF044BDB681B0A03F0070318468B
:10047C00BD4680BC704700BF00ED00E080B483B087
:10048C0000AF03463960FB7197F90730002B0ADB8C
:10049C003B68DAB20C4997F907301201D2B20B441F
:1004AC0083F800230AE03B68DAB20849FB7903F0D1
:1004BC000F03043B1201D2B20B441A7600BF0C3767
:1004CC00BD4680BC704700BF00E100E000ED00E0DD
:1004DC0080B489B000AFF860B9607A60FB6803F053
:1004EC000703FB61FB69C3F10703042B28BF04233B
:1004FC00BB61FB690433062B02D9FB69033B00E0AB
:10050C0000237B614FF0FF32BB6902FA03F3DA433D
:10051C00BB681A407B699A404FF0FF317B6901FA46
:10052C0003F3D9437B680B40134318462437BD466D
:10053C0080BC704780B582B000AF78607B68013BAF
:10054C00B3F1807F01D301230FE00A4A7B68013BA2
:10055C0053600F214FF0FF30FFF790FF054B002247
:10056C009A60044B07221A60002318460837BD46D0
:10057C0080BD00BF10E000E080B582B000AF7860B5
:10058C007868FFF749FF00BF0837BD4680BD80B5CE
:10059C0086B000AF0346B9607A60FB7300237B61C1
:1005AC00FFF75EFF78617A68B9687869FFF790FFAA
:1005BC00024697F90F3011461846FFF75FFF00BF50
:1005CC001837BD4680BD80B582B000AF78607868C2
:1005DC00FFF7B0FF034618460837BD4680BD000044
:1005EC0080B48BB000AF7860396000237B6200234D
:1005FC003B6269E101227B6A02FA03F3FB613B680F
:10060C001B68FA691340BB61BA69FB699A4240F0F6
:10061C0058813B685B689A4A93425ED0984A9342F1
:10062C0075D8984A934258D0964A93426FD8964AB6
:10063C00934252D0944A934269D8944A93424CD0F4
:10064C00924A934263D8924A934246D0904A93423C
:10065C005DD8122B2AD8122B59D801A252F823F0AC
:10066C00E7060008C1060008D306000815070008B5
:10067C001B0700081B0700081B0700081B070008C6
:10068C001B0700081B0700081B0700081B070008B6
:10069C001B0700081B0700081B0700081B070008A6
:1006AC001B070008C9060008DD060008794A9342BA
:1006BC0013D02CE03B68DB683B6229E03B68DB68CD
:1006CC0004333B6224E03B68DB6808333B621FE089
:1006DC003B68DB680C333B621AE03B689B68002B81
:1006EC0002D104233B6213E03B689B68012B05D1CC
:1006FC0008233B627B68FA691A6109E008233B62B4
:10070C007B68FA695A6103E000233B6200E000BF9A
:10071C00BB69FF2B01D87B6801E07B6804337B61EC
:10072C00BB69FF2B02D87B6A9B0002E07B6A083B0B
:10073C009B003B617B691A680F213B6901FA03F34B
:10074C00DB431A40396A3B6901FA03F31A437B69AC
:10075C001A603B685B6803F08053002B00F0B1809B
:10076C004D4B9B694C4A43F0010393614A4B9B6987
:10077C0003F00103BB60BB68484A7B6A9B080233E9
:10078C0052F82330FB607B6A03F003039B000F22BB
:10079C0002FA03F3DB43FA681340FB607B68404AC0
:1007AC00934213D07B683F4A93420DD07B683E4AFC
:1007BC00934207D07B683D4A934201D1032306E064
:1007CC00042304E0022302E0012300E000237A6A00
:1007DC0002F0030292009340FA681343FB602F4926
:1007EC007B6A9B080233FA6841F823203B685B68FC
:1007FC0003F48013002B06D02D4B9A682C49BB694F
:10080C0013438B6006E02A4B9A68BB69DB4328498B
:10081C0013408B603B685B6803F40013002B06D01D
:10082C00234BDA682249BB691343CB6006E0204BAB
:10083C00DA68BB69DB431E491340CB603B685B68DD
:10084C0003F40033002B06D0194B5A681849BB69C6
:10085C0013434B6006E0164B5A68BB69DB431449E3
:10086C0013404B603B685B6803F48033002B21D052
:10087C000F4B1A680E49BB6913430B6021E000BF94
:10088C000000321000003110000022100000211076
:10089C000000121000001110001002400000014076
:1008AC0000080140000C0140001001400014014000
:1008BC00000401400B4B1A68BB69DB430949134028
:1008CC000B607B6A01337B623B681A687B6A22FA95
:1008DC0003F3002B7FF48EAE00BF00BF2C37BD4658
:1008EC0080BC70470004014080B483B000AF7860D6
:1008FC000B467B8013467B707B78002B03D07A8869
:10090C007B681A6103E07B881A047B681A6100BF5C
:10091C000C37BD4680BC704770B500260C4D0D4C95
:10092C00641BA410A64209D100F01AF800260A4D47
:10093C000A4C641BA410A64205D170BD55F8043BAB
:10094C0098470136EEE755F8043B98470136F2E735
:10095C008409000884090008840900088809000833
:10096C00F8B500BFF8BC08BC9E467047F8B500BF90
:08097C00F8BC08BC9E46704760
:040984003101000835
:040988000D01000855
:0C098C0000127A001000000001000000C2
:04000005080002CD20
:00000001FF
